:020000040800F2
:10000000002000200D21000881050008830500085C
:1000100000000000000000000000000000000000E0
:10002000000000000000000000000000850500083E
:100030000000000000000000870500088905000896
:100040005D210008000000005D2100085D2100081E
:100050005D2100085D2100085D2100085D21000888
:1000600000000000910500085D2100085D210008E6
:100070005D2100085D2100085D21000800000000EE
:100080005D21000800000000000000005D21000864
:10009000000000005D2100085D2100085D210008CE
:1000A0005D2100085D2100085D2100085D21000838
:0800B0005D21000800000000C2
:1000B800002243088B4274D303098B425FD3030A9F
:1000C8008B4244D3030B8B4228D3030C8B420DD3B2
:1000D800FF22090212BA030C8B4202D31212090240
:1000E80065D0030B8B4219D300E0090AC30B8B427E
:1000F80001D3CB03C01A5241830B8B4201D38B032C
:10010800C01A5241430B8B4201D34B03C01A5241D0
:10011800030B8B4201D30B03C01A5241C30A8B4213
:1001280001D3CB02C01A5241830A8B4201D38B02FE
:10013800C01A5241430A8B4201D34B02C01A5241A2
:10014800030A8B4201D30B02C01A5241CDD2C30914
:100158008B4201D3CB01C01A524183098B4201D390
:100168008B01C01A524143098B4201D34B01C01A7B
:10017800524103098B4201D30B01C01A5241C308F3
:100188008B4201D3CB00C01A524183088B4201D362
:100198008B00C01A524143088B4201D34B00C01A4E
:1001A8005241411A00D20146524110467047FFE7BA
:1001B80001B5002000F0F0F802BDC0460029F7D0D4
:1001C80076E7704703460B437FD4002243088B42EF
:1001D80074D303098B425FD3030A8B4244D3030BC6
:1001E8008B4228D3030C8B420DD3FF22090212BA8B
:1001F800030C8B4202D31212090265D0030B8B4207
:1002080019D300E0090AC30B8B4201D3CB03C01AF0
:100218005241830B8B4201D38B03C01A5241430BCB
:100228008B4201D34B03C01A5241030B8B4201D3BB
:100238000B03C01A5241C30A8B4201D3CB02C01A26
:100248005241830A8B4201D38B02C01A5241430A9E
:100258008B4201D34B02C01A5241030A8B4201D38D
:100268000B02C01A5241CDD2C3098B4201D3CB0134
:10027800C01A524183098B4201D38B01C01A5241E3
:1002880043098B4201D34B01C01A524103098B42E7
:1002980001D30B01C01A5241C3088B4201D3CB00D2
:1002A800C01A524183088B4201D38B00C01A5241B5
:1002B80043088B4201D34B00C01A5241411A00D265
:1002C80001465241104670475DE0CA0F00D04942CE
:1002D800031000D34042534000229C4603098B423E
:1002E8002DD3030A8B4212D3FC22890112BA030AC6
:1002F8008B420CD3890192118B4208D38901921148
:100308008B4204D389013AD0921100E08909C309CC
:100318008B4201D3CB01C01A524183098B4201D3CE
:100328008B01C01A524143098B4201D34B01C01AB9
:10033800524103098B4201D30B01C01A5241C30831
:100348008B4201D3CB00C01A524183088B4201D3A0
:100358008B00C01A5241D9D243088B4201D34B00BB
:10036800C01A5241411A00D20146634652415B10FD
:10037800104601D34042002B00D5494270476346DE
:100388005B1000D3404201B5002000F005F802BD23
:100398000029F8D016E770477047C046010034318D
:1003A80038C9043B9C461D60A646010020313CC963
:1003B80090469946A246AB4601000831FCC94168FF
:1003C8000068E54600BDC0467047C0467047C04655
:1003D8007047C0467047C0467047C0467047C04621
:1003E8007047C0467047C0467047C0467047C04611
:1003F80001B401A801B585B0FFB408A841464A4632
:1004080053465C4665463EC001A83EC80F9800901A
:1004180000230CB401A902F023F8109B12B018476E
:1004280001B401A801B585B0FFB408A841464A4601
:1004380053465C4665463EC001A83EC80F980090EA
:1004480000230CB401A902F03DF8109B12B0184724
:1004580001B401A801B585B0FFB408A841464A46D1
:1004680053465C4665463EC001A83EC80F980090BA
:1004780000230CB401A902F047F8109B12B01847EA
:1004880001B401A801B585B0FFB408A841464A46A1
:1004980053465C4665463EC001A83EC80F9800908A
:1004A80000230CB401AB02F003F8109B12B01847FC
:1004B80001B401A801B585B0FFB408A841464A4671
:1004C80053465C4665463EC001A83EC80F9800905A
:1004D80000230CB401AA02F081F8109B12B018474F
:1004E8000448054B10B5834203D0044B002B00D0C1
:1004F800984710BD0C0000200C00002000000000F0
:1005080006480749091A8B10C90FC91810B54910B0
:1005180003D0044B002B00D0984710BD0C000020DE
:100528000C0000200000000010B5074C2378002BB9
:1005380009D1FFF7D5FF054B002B02D0044800E096
:1005480000BF0123237010BD0C0000200000000034
:10055800302F0008054B10B5002B03D0044905487F
:1005680000E000BFFFF7CCFF10BDC0460000000050
:1005780010000020302F0008FEE7FEE770477047A4
:1005880010B501F0E1FB10BD10B5024801F0ACFA5E
:1005980010BDC0463C00002082B00A4B196C0122F5
:1005A80011431964196C0A400092009ADA6B802191
:1005B80049050A43DA63DB6B0B400193019B02B0E8
:1005C8007047C0460010024030B58FB004001422B6
:1005D800002109A801F0BFFD1822002103A801F09D
:1005E800BAFD2268224B9A4201D00FB030BD0123D8
:1005F800039303A800F0F8FF002832D11D4B1A6CB2
:100608008021C9010A431A641A6C0A400192019AAE
:10061800596B0222114359635B6B13400293029B8F
:10062800C02309930A9200250B950C950D9509A9ED
:10063800114801F097F81148114B036032234360C9
:100648008560C5604E33036145618561C56105629A
:1006580001F0A4F9002807D1084B8022A3509C621E
:10066800C3E701F071FCC9E701F06EFCF4E7C0468E
:100678000038014000100240000400503C000020F7
:100688000800024030B5EFF31084012282F310888D
:1006980001680B68C025AB430B6084F31088EFF347
:1006A800108182F3108802689368044C2340936099
:1006B80081F3108888232022C25030BDFFFF7FFFBE
:1006C80030B5EFF31084012282F3108801680B68BB
:1006D800124D2B400B6084F31088EFF3108182F3E6
:1006E8001088026893680E4C2340936081F3108849
:1006F800C36E012B06D08C232022C2500023C36670
:10070800436730BDEFF3108183F3108802681368E4
:100718001024A343136081F31088ECE7DFFEFFFF8A
:10072800FEFFFFEF70477047704770B5846A8823F3
:10073800E2580433E55823689B681B0601D5212A33
:100748000ED023689B685B0601D5222D0FD090221E
:10075800A35810210B43A3502000FFF7E5FF70BDFD
:1007680056230022E2522000FFF78CFFE9E75E23C0
:100778000022E2522000FFF7A3FFE8E7704710B518
:10078800806A01230367C36E012B02D0FFF7CBFFFA
:1007980010BD5B33C15A4908FFF7F0FFF8E70000C6
:1007A80070B50300806A1B681B689B0629D45E230A
:1007B8000022C252EFF310845D3B83F31088016876
:1007C8000A681C4D2A400A6084F31088EFF31084ED
:1007D80083F3108801688A689A438A6084F31088D2
:1007E800EFF3108183F31088026893684024A343D1
:1007F800936081F310888C232022C250C36E012B92
:1008080007D000230367C36E012B0ED0FFF78AFFC2
:1008180070BDEFF3108183F3108802681368303CD1
:10082800A343136081F31088EBE75B33C15AFFF7EA
:10083800A5FFEDE7FFFEFFFF10B50400836802691E
:10084800134342691343C269134301680A685B484A
:10085800024013430B602268536859490B40E16812
:100868000B435360A369226A1A4321688B68554871
:10087800034013438B602268D36A0F218B43616A5C
:100888000B43D3622368504A934229D04F4A93427C
:1008980037D01023E0698022120290423BD0042B0B
:1008A80000D183E06CD8002B00D178E0022B65D111
:1008B8004748626A474B5200D15AFFF7F9FB616813
:1008C8004B08C018FFF7F4FB0200103A424B9A425B
:1008D80000D970E023680004000CD860002055E0BF
:1008E8003E4B5A6D03231340022B0CD005D8002B26
:1008F8000BD0012B0BD10333CCE7032B09D10533E4
:10090800C8E70023C6E70223C4E70023C2E7102391
:10091800C0E71023BEE7042B2DD022D8002B24D00B
:10092800022B1CD12A48626A2A4B5200D15AFFF77F
:10093800BFFB400061684B08C018FFF7B9FB020015
:10094800103A254B9A4234D882B20F239A43400872
:10095800083B034013432268D360002016E00120BF
:1009680014E0082BDFD0012010E000F029FE002859
:10097800D9D100200AE000F0FBFCF8E7012005E0EF
:10098800082B02D18020000293E7012001236A226C
:10099800A352023AA35200236367A36710BD00F075
:1009A8000FFE002800D084E70020EFE700F0E0FC0D
:1009B800F7E70120EAE70120E8E7C046F369FFCF3F
:1009C800FFCFFFFFFFF4FF11003801400044004053
:1009D8000024F400482F0008EFFF00000010024038
:1009E800836ADB0706D5026853682C490B40C16A45
:1009F8000B435360836A9B0706D5026853682849EE
:100A08000B40016B0B435360836A5B0706D5026892
:100A1800536824490B40416B0B435360836A1B079F
:100A280006D50268536820490B40816B0B4353601D
:100A3800836ADB0606D5026893681C490B40C16BC4
:100A48000B439360836A9B0606D50268936818492E
:100A58000B40016C0B439360836A5B060BD50268FD
:100A6800536814490B40416C0B435360426C80231C
:100A78005B039A420AD0836A1B0606D5026853684C
:100A88000D490B40C16C0B435360704702685368B3
:100A98000A490B40816C0B435360ECE7FFFFFDFFF5
:100AA800FFFFFEFFFFFFFBFFFF7FFFFFFFEFFFFFE3
:100AB800FFDFFFFFFFFFEFFFFFFFF7FFFFFF9FFFD6
:100AC800F8B5CE46474680B506000D001700994692
:100AD800089B98463368DC692C40641B63425C4180
:100AE800BC4257D143460133F4D001F039F94B46A3
:100AF800C01A40452ED84346002B2BD032681368C5
:100B08005B07E7D5D3691B05E4D580231B01136276
:100B1800EFF31080012282F3108831680B68204CB3
:100B280023400B6080F31088EFF3108082F3108865
:100B380031688B6893438B6080F310882023873259
:100B4800B3500432B3500432B35064330022F25429
:100B5800032020E0EFF31080012282F3108831682F
:100B68000B680F4C23400B6080F31088EFF3108064
:100B780082F3108831688B6893438B6080F3108808
:100B880020238732B3500432B35064330022F25426
:100B9800032000E00020C0BCB946B046F8BDC046FE
:100BA8005FFEFFFF30B583B0040090230022C250DF
:100BB80001F0D6F8050023681B681B0710D42368CA
:100BC8001B685B0719D420238822A3500432A35042
:100BD8000023E3662367083AA354002003B030BD1E
:100BE80080210C4B00930300002289032000FFF7AB
:100BF80067FF0028E3D00320F0E78021054B00932E
:100C08002B000022C9032000FFF75AFF0028DAD082
:100C18000320E3E7FFFFFF0110B5041E30D088234F
:100C2800C358002B22D088232422E250226813685C
:100C380001218B4313602000FFF7FEFD012814D02B
:100C4800A36A002B18D1226853680E490B405360E1
:100C5800226893682A218B43936022681368293994
:100C68000B4313602000FFF79DFF10BD8433002263
:100C7800C254FFF7A9FCD6E72000FFF7B1FEE2E770
:100C88000120F2E7FFB7FFFF10B5040013008165EC
:100C98005C228352343200218150043A223181503F
:100CA8000C3A8258002A13D02149D1628020225858
:100CB8002049116322582049516322580021916329
:100CC80021682431A26D205800F0C0FE002826D1EA
:100CD8002369002B0BD0EFF31081012383F31088D5
:100CE80022681068FF330343136081F31088EFF321
:100CF8001080012383F3108821688A681A438A6068
:100D080080F31088EFF3108183F3108822689368CA
:100D180040200343936081F31088002010BD902386
:100D28001022E250043B1032E2500120F6E7C046A0
:100D3800A9070008870700083307000870B58C2347
:100D4800C358202B23D1002923D0002A23D084681C
:100D580080235B019C4204D10369002B01D1CB079E
:100D68001BD40023C36603685B681B020CD5EFF332
:100D7800108C012383F31088046825688023DB0422
:100D88002B4323608CF31088FFF77EFF00E00220DE
:100D980070BD0120FCE70120FAE70120F8E7000018
:100DA800F8B50400436E002B05D101336A22835243
:100DB800023A8352F8BD026895686D0E07231D40FC
:100DC8009268520F1340084FF85CC000074EF15C60
:100DD800FFF7F8F96A23E052785DC000715DFFF70C
:100DE800F1F96823E052E5E7682F0008602F000852
:100DF80070B58423C35C012B15D0842401260655C5
:100E0800882524234351026813681168B14311608F
:100E1800064A13400022426601680B6020234351B2
:100E28000255002070BD0220FCE7C046FFFFFFDF2F
:100E3800F8B504000A008423C35C012B1BD0842569
:100E48000120605588262423A35123681F68196848
:100E58008143196020688368DB00D90811438160E9
:100E68002000FFF79DFF23681F602023A351002364
:100E780063550020F8BD0220FCE70000F8B5040027
:100E88000B008422825C012A1BD084250120605536
:100E980088262422A25122681768116881431160AC
:100EA8002268916808480140194391602000FFF7C3
:100EB80077FF23681F602023A35100236355002078
:100EC800F8BD0220FCE7C046FFFFFFF170B582B015
:100ED800041E00D129E20368DB0739D5C14A9168AD
:100EE80038230B40D16803220A40102B26D0082B48
:100EF80026D063688022520293427FD0A022D20279
:100F0800934200D181E0B74B1A68B7490A401A608A
:100F18001A68B6490A401A606368002B00D180E05D
:100F280000F01EFF0500AF4B1B689B0310D400F0B8
:100F380017FF401B6428F6D90320F7E1032AD6D10E
:100F4800A84B1B689B0303D56368002B00D1EFE116
:100F580023689B0731D5A34A916838230B40D16891
:100F680003220A40102B6AD0002B6BD19D4A1268CD
:100F7800520503D5E268002A00D1DBE199484268AE
:100F88009B490A40616909020A434260002B0DD15E
:100F9800036898490B4021690B4303600368DB0A27
:100FA80007221A40944BD340944A1360944B186814
:100FB80000F08AFE002800D0BEE123681B0700D499
:100FC80081E0884B9A6838231340182B73D0A369A3
:100FD800002B00D1B4E0834A136E01210B43136642
:100FE80000F0BEFE05007F4B1B6E9B076BD400F024
:100FF800B7FE401B0228F6D9032097E1794A116809
:1010080080235B020B43136086E7764B19688022C6
:10101800D2020A431A601968802252020A431A60EF
:101028007AE700F09DFE05006E4B1B689B038FD589
:1010380000F096FE401B6428F6D9032076E1022AC8
:1010480092D193E7E368002B22D0664A1368694976
:101058000B4021690B431360116880235B000B432D
:10106800136000F07DFE05005E4B1B685B0506D42F
:1010780000F076FE401B0228F6D9032056E15949B4
:101088004B685B4A13406269120213434B6094E752
:10109800544A13685B490B40136000F061FE050079
:1010A800504B1B685B0588D500F05AFE401B022890
:1010B800F6D903203AE14B4B1B6E9B0703D5A36976
:1010C800002B00D13AE123685B0700D4A2E0454B2E
:1010D8009A6838231340202B45D0424BDB6BDB004A
:1010E8004AD4404BDA6B802149050A43DA63DB6B4B
:1010F8000B400193019B0125434B1B68DB053DD544
:10110800A368012B4ED0052B52D0364BDA6D012146
:101118008A43DA65DA6D03318A43DA65A368002BFE
:1011280050D000F01DFE06002E4BDB6D9B076FD4E0
:1011380000F016FE801B354B9842F5D90320F5E0E8
:10114800284A136E01218B43136600F009FE05003F
:10115800244B1B6E9B07B6D500F002FE401B0228ED
:10116800F6D90320E2E01F4BDB6D9B0752D5A3683D
:10117800002B4FD10120D9E00025BDE7224A116894
:1011880080235B000B43136000F0EAFD06001E4B52
:101198001B68DB05B4D400F0E3FD801B0228F6D9F8
:1011A8000320C3E00F4AD36D01210B43D365B5E794
:1011B8000C4BDA6D04210A43DA65DA6D03390A4308
:1011C800DA65ABE700F0CCFD0600064BDB6D9B074C
:1011D8001ED500F0C5FD801B0C4B9842F5D90320A5
:1011E800A4E0C04600100240FFFFFEFFFFFFFBFF28
:1011F800FF80FFFFFFC7FFFF0024F4000800002066
:1012080004000020FFFEFFFF00700040881300006C
:10121800012D1ED0E369002B00D191E04F4A91685F
:1012280038220A40102A5ED0022B18D04B4A136885
:101238004B490B40136000F093FD0400474B1B68BB
:101248009B0149D500F08CFD001B0228F6D903202C
:101258006CE0424AD36B43490B40D363DAE73F4A19
:1012680013683F490B40136000F07AFD05003B4BC3
:101278001B689B0106D500F073FD401B0228F6D9B8
:10128800032053E0354AD36837491940236A606A16
:101298000343A06A00020343E06A0343206B03434D
:1012A8000B43D360116880235B040B431360D16840
:1012B80080235B050B43D36000F052FD0400274BED
:1012C8001B689B0106D400F04BFD001B0228F6D9D1
:1012D80003202BE0002029E0204AD36823490B4053
:1012E800D360002022E0012B2CD01C4BDA680323AA
:1012F8001340216A8B4227D170231340616A8B42C5
:1013080024D1FE21C9011140A36A1B0299421FD1B1
:10131800F8239B031340E16A8B421BD1520F5207FB
:10132800236B9A4218D1002000E0012002B070BD62
:101338000120FBE70120F9E70120F7E70120F5E7A5
:101348000020F3E70120F1E70120EFE70120EDE7B6
:101358000120EBE70120E9E70120E7E70010024060
:10136800FFFFFFFEFFFFFFEF8C80C11FFCFFFEEFBA
:1013780010B52A4B9B6838221A4207D1274B1A68A6
:10138800D20A072313402648D84010BD234B9A6839
:1013980038231340082B3BD0204B9A68382313403E
:1013A800102B0DD01D4B9A6838231340202B31D0B9
:1013B8001A4B9A6838231340182B26D00020E4E7EC
:1013C800164AD1680D3B0B40D2681209072111401B
:1013D8000131032B0FD01248FEF76AFE0F4BDA6873
:1013E800120A7F23134058430C4BD968490F013127
:1013F800FEF75EFEC9E70B48FEF75AFE074BDA68B0
:10140800120A7F2313405843EEE7FA20C001BCE7D5
:101418000448BAE780200002B7E7C046001002403F
:101428000024F40000127A0070B504000D000028B2
:1014380000D1AAE0574B1A68072313408B4221D3E7
:1014480023689A070ED55B0705D5534A9168E023B0
:10145800DB010B439360504A936850490B40A168E5
:101468000B4393602368DB0754D56368012B20D0B6
:10147800022B3BD0002B3FD1474A126852051CD49F
:1014880001206AE0434A136807218B432B4313600A
:1014980000F066FC06003F4B1A6807231340AB4276
:1014A800CED000F05DFC801B3D4A9042F3D903206A
:1014B80053E0394A1268920369D537498A68072088
:1014C800824313438B6000F04BFC0600324B9B6851
:1014D80038221A406368DB009A421BD000F040FCB7
:1014E800801B2F4B9842F1D9032036E02A4A126814
:1014F8009201E2D4012030E0032B05D0264AD26DB8
:101508009207DAD4012028E0234A126E9207D4D435
:10151800012022E01F4B1A6807231340AB421DD855
:1015280023685B0706D51C4A93681E490B40E1688F
:101538000B439360FFF71CFF174B9A68120A0F239F
:101548001340194A9B009A581F231340D840174B41
:101558001860174B186800F0B7FB70BD0D4A136888
:1015680007218B432B43136000F0FAFB0600094B5D
:101578001A6807231340AB42D2D000F0F1FB801B5E
:10158800074B9842F3D90320E7E70120E5E701205C
:10159800E3E7C0460020024000100240FFF0FFFFD2
:1015A80088130000FF8FFFFF902F0008080000201D
:1015B80004000020014B18687047C046080000204E
:1015C80010B5FFF7F7FF064B9A68120B0723134075
:1015D800044A9B009A581F231340D84010BDC046A8
:1015E80000100240702F0008F0B583B004000368B3
:1015F8009B0362D5534BDB6BDB001ED4514BDA6B7C
:10160800802149050A43DA63DB6B0B400193019B98
:1016180001264D4A116880235B000B43136000F0DC
:101628009FFB0500484B1B68DB0508D400F098FBBE
:10163800401B0228F6D9032502E00026E9E7002529
:10164800002D23D13F4BD96DC02292000B001340CF
:10165800114210D062699A420DD03A4AD36D3B4983
:101668000B40D06D802149020143D165D16D3848C6
:101678000140D165D365DB0710D4002D06D1314A6E
:10168800D36D32490B4061690B43D365012E15D1E7
:101698002C4AD36B2F490B40D3630FE000F060FB5B
:1016A8000700284BDB6D9B07E7D400F059FBC01BF4
:1016B800294B9842F5D90325DFE700252368DB0786
:1016C80006D5204A536D03218B4361680B4353654C
:1016D80023689B0606D51B4A536D20490B40A16819
:1016E8000B43536523685B040BD5164A536D9B0067
:1016F8009B0821690B43536522698023DB059A42C5
:1017080011D023681B050BD50E4A536D14490B40A5
:10171800E1680B435365E2688023DB019A4209D0F4
:10172800280003B0F0BD074AD16880235B020B4351
:10173800D360E6E7034AD16880235B020B43D3609A
:10174800EEE7C0460010024000700040FFFCFFFFBB
:10175800FFFFFEFFFFFFFFEF88130000FFCFFFFF33
:10176800FF3FFFFFF0B5002359E086685F000324C0
:10177800BC40A643CC68BC4034438460446894436E
:101788004E683609012232409A402243426056E0B0
:10179800DE080836B600375805321A4092000F2482
:1017A8009440A7430C69944022003A43325059E0D0
:1017B800032600E00026A64034003C43424E18327F
:1017C800920094513768EA433E00AE434C68E40205
:1017D80001D53E002E433C4C266067683E0016400B
:1017E8004C68A40201D53E002E43374C666084261F
:1017F800A7593E0016404C68A40301D53E002E436D
:10180800314C8427E6518026A65932404C68E403BF
:1018180001D52A0032432C4D80242A5101330C680B
:101828002200DA404ED001229A4025001540144289
:10183800F4D04E6803243440013C012C95D94C68FF
:1018480003222240032A08D0C4685E000322B24063
:1018580094438A68B2402243C2604C680322224003
:10186800022A95D004685E0003221700B740BC43E3
:101878004F683A40B240224302604C68C02292024C
:101888001442CBD09A0814001834A4000E4EA7595D
:1018980003241C40E4000F26A640B743A026F60503
:1018A800B04287D0094EB04208D0094EB04207D0A6
:1018B800084EB04200D17BE705267CE701267AE78F
:1018C800022678E7F0BDC046001802400004005028
:1018D80000080050000C005003690B4201D00120A1
:1018E80070470020FCE7002A01D0816170478162BF
:1018F800FCE70000F0B5846CC56C6560046D002CD5
:1019080002D0446D856D65600B4F7C68056C1C26A4
:101918002E400125B5402C437C60046863608368D1
:10192800102B04D0036899600368DA60F0BD03687F
:101938009A600368D960F9E70000024010B5040016
:10194800036C9B08094A944663449B0043640368FC
:10195800FF20184008381421FEF7AAFB044BA364A3
:101968001F2318401E3B8340E36410BD0082001013
:101978008008024042683F231340064A9A189200A2
:101988000265054A4265013B03221A400123934040
:10199800836570473F8200104009024070B5041EFD
:1019A8004DD00568274BE8181421FEF781FB80000D
:1019B800206425230222E2542B68234A13402B601B
:1019C80021680A68A368E0680343206903436069E3
:1019D8000343A0690343E0690343206A03431343B5
:1019E8000B602000FFF7AAFFA2688023DB019A4260
:1019F80018D06168626C3F230B401360A36CE26CE3
:101A08005A606368013B032B0FD900232365636584
:101A1800A3650023E36325220121A154013AA354BD
:101A2800002070BD00236360E3E72000FFF7A2FFFA
:101A3800236D00221A60636DA26D5A60E9E70120E8
:101A4800EFE7C046F8FFFDBF0F80FFFF70B5040049
:101A58002420205C012845D024200125255401306C
:101A6800205C012806D08023E3635C3B0022E2541B
:101A7800012070BD2430013525540020E06325681D
:101A880028680126B04328602000FFF733FF236B46
:101A9800002B1CD0226813680E210B431360626C64
:101AA8001368DB0304D5116880235B000B431360C4
:101AB800236D002B04D01968802252000A431A6053
:101AC8002268136801210B4313600020D1E72268C4
:101AD800136804218B4313602268136806310B4393
:101AE8001360DCE70220C4E770B5314B196804685D
:101AF8002568026C1C23134004229A40114216D018
:101B08006A0714D523689B0603D4236804229343E9
:101B18002360274C6368026C1C21114004228A4010
:101B280013436360036B002B00D0984770BD0222FB
:101B38009A4011421CD0AA071AD523689B0606D4DE
:101B480023680A22934323602523093AC254184C78
:101B58006368026C1C21114002228A4013436360AF
:101B680024230022C254C36A002BDFD09847DDE744
:101B780008229A401142D9D02D07D7D523680E22C2
:101B8800934323600A4C6268036C1C2119400123AB
:101B98001D008D402A436260C3632522835423338A
:101BA8000022C254436B002BC0D09847BEE7C04602
:101BB8000000024010B5104A136810490B40034357
:101BC800136080239B00984201D0002010BD0C4B6D
:101BD8001B685800C01840000A49FEF769FA01302E
:101BE800054B5B695B0503D5002803D00138F7E78F
:101BF8000020EBE70320E9E700700040FFF9FFFF52
:101C08000800002040420F0070B5002811DB83084F
:101C1800134DC0339B005C5903221040C000FC32B6
:101C280016008640B44389010A40824022435A5133
:101C380070BD0F230340083B9B0806339B00094AED
:101C4800944663445C6803221040C000FC321500CF
:101C58008540AC4389010A40824022435A60E7E745
:101C680000E100E000ED00E0013880235B049842C9
:101C78000FD2094A50600948036A1B021B0AC02197
:101C880009060B43036200239360073313600020A7
:101C980070470120FCE7C04610E000E000ED00E0DE
:101CA80010B5FFF7B1FF10BD002805DB1F22024069
:101CB80001239340014A13607047C04600E100E0E9
:101CC80010B5FFF7D1FF10BD10B50400114B1978FE
:101CD800002901D1012010BDFA208000FEF7E8F9A3
:101CE80001000D4B1868FEF7E3F9FFF7E9FF00283C
:101CF8000DD1032C01D90120EDE70130002221008C
:101D08004042FFF7CDFF054B1C600020E3E70120B0
:101D1800E1E7C04600000020080000200400002081
:101D280010B5084A116880235B000B431360032039
:101D3800FFF7CAFF041E02D00124200010BDFEF7E1
:101D48002BFCFAE700200240034B1B78034A11687A
:101D58005B1813607047C046000000202800002070
:101D6800014B18687047C0462800002070B5040071
:101D7800FFF7F6FF0500631C02D0044B1B78E4183C
:101D8800FFF7EEFF401BA042FAD370BD0000002011
:101D98007047000030B589B01422002103A800F074
:101DA800DAF9164B596B022211435963596B0A40F1
:101DB8000192019A5A6B012422435A635B6B2340B8
:101DC8000293029BA025ED050022E7212800FFF7DA
:101DD8008AFDE7230393049400240594069403A939
:101DE8002800FFF7BFFC182303930494059403A964
:101DF8002800FFF7B7FC09B030BDC046001002400C
:101E080000B583B0094A916B012319439163926B22
:101E180013400193019B002200210920FFF740FF96
:101E28000920FFF741FF03B000BDC0460010024083
:101E3800F8B5CE46474680B506000F0014001D00D1
:101E480008AB04CB90461B88994601222900200044
:101E5800FFF749FD1420FFF789FF01224946404654
:101E6800FFF741FD012239003000FFF73CFD142047
:101E7800FFF77CFF002229002000FFF734FDC0BCDB
:101E8800B946B046F8BDF8B5CE46474680B5060017
:101E98000F0014001D0008AB04CB90461B88994620
:101EA800012229002000FFF71EFD1420FFF75EFF26
:101EB800002249464046FFF716FD0022390030004F
:101EC800FFF711FD1420FFF751FF00222900200021
:101ED800FFF709FDC0BCB946B046F8BDF8B5070024
:101EE8000E001500002410E0012229003000FFF741
:101EF800FAFCFA20FFF73AFF002229003000FFF72A
:101F0800F2FCFA20FFF732FF0134BC42ECDBF8BDEB
:101F180070B50A4C25886D00FFF7DEFC431E5A4257
:101F280053412B431BB20648184380B22080054B0F
:101F38009C46604443425841C0B270BD2C0000200A
:101F480000FEFFFF0001FFFF72B6FEE710B517485D
:101F5800174B0360174B436000238360C360036122
:101F68000C2242618361C361036243628362FEF7AC
:101F780053FE002811D10D480021FEF759FF002813
:101F88000DD10A480021FEF779FF002809D107483A
:101F9800FEF72EFF002806D110BDFFF7D5FFFFF78B
:101FA800D3FFFFF7D1FFFFF7CFFFC046980000200F
:101FB80000380140127A000000B593B034220021A5
:101FC80005A800F0C8F81022002101A800F0C3F805
:101FD80080208000FFF7EEFD02230593FE3308936F
:101FE8000023099340220A920C9305A8FEF76EFF7E
:101FF80000280DD107230193002302930393049330
:10200800002101A8FFF710FA002803D113B000BD82
:10201800FFF79AFFFFF798FF70B582B0FFF780FED1
:10202800FFF7CAFFFFF7B6FEFFF7EAFEFFF78EFFDE
:10203800A0200821C005FFF74FFC012806D02E4933
:102048002E480422FEF77AFE00243FE0F930C00053
:10205800FFF78CFEA0200821C005FFF73DFC0128F2
:10206800EDD10126002534000EE0A0210222C90589
:102078002000FFF733FFFFF773FE85B2FFF770FE0E
:10208800401B1F4B98420ED8002ED8D0A020082104
:10209800C005FFF721FC0128F0D10134A4B2102CAF
:1020A800E3D90124E1E7A0210222C9050320FFF7B3
:1020B80015FF0026E8E7A020C005802301930090C3
:1020C800603B02000221FFF7B3FE0124A020082193
:1020D800C005FFF71DFF0028F8D0002CEBD0A0208A
:1020E800C005802301930090603B02000221FFF7A6
:1020F800CAFE0024EAE7C04630000020980000200D
:10210800204E00000D488546FFF742FE0C480D4959
:102118000D4A002302E0D458C4500433C4188C423A
:10212800F9D30A4A0A4C002301E013600432A242A0
:10213800FBD300F019F8FFF76FFFFEE7002000203F
:10214800000000200C000020183100080C000020BE
:102158002C010020FEE703008218934200D170474B
:1021680019700133F9E7000070B500260C4C0D4DCD
:10217800641BA410A64209D1002600F0D5FE0A4C23
:102188000A4D641BA410A64205D170BDB300EB58DC
:1021980098470136EEE7B300EB5898470136F2E767
:1021A80010310008103100081431000810310008FF
:1021B80003685A0004D5802212061343C0187047DA
:1021C8005B005B08FAE7C046F8B54E464546DE4672
:1021D800574680469146E0B500292AD04B1E9B46BB
:1021E8009A4600275346FB18DC0FE4184346641050
:1021F800E5005E193000FFF7DBFFA34510D0484526
:1022080009D8083528004044FFF7D2FF013848456F
:1022180008D2671CE6E7A7420BD0631E9A46E1E79F
:102228004845F8D83000F0BCBB46B246A946A0469F
:10223800F8BD0026F6E7C0460300012805D00228AD
:1022480007D00020002B02D070470348FCE7034862
:10225800FAE70348F8E7C046392900082D2900089D
:102268004529000830B5204B050083B08C1E002B93
:1022780023D0200001A900E000BF00282BD001993D
:102288002200FFF7A1FF041E25D0FFF791FF636826
:10229800A864012B24D0201D002B1FDBFFF788FF2B
:1022A80000232B650368E864002B0CDBFFF780FF35
:1022B800030000202B6103B030BD0C4B0C481B1AE7
:1022C800D9100191DCE71801000FFFF7B5FF0300F3
:1022D8000020002BEED100230920EBE70123E0E7E3
:1022E80000230520E6E7C046000000001031000882
:1022F80030300008036810B50400DA0705D49B07DE
:102308000AD55030FEF764F823685A070AD51A0729
:102318000FD5DB0615D510BD5030FEF755F82368EC
:102328005A07F4D42000D830FEF756F823681A0765
:10233800EFD420005930FF30FEF752F82368DB064F
:10234800E9D42000D930FF30FEF74EF8E3E7C04665
:1023580003000068002800D0C01870477047C046C6
:1023680070B504000D002000296CFFF77BFF0028E2
:1023780011D12B6C2A006361210001202369984741
:102388000828F0D0072806D10020296CFFF7E6FFBF
:10239800281DFEF703F8FFDEF0B54746CE4680B5A8
:1023A8002E4C8369A544C7680400150004314022F7
:1023B80003A8984600F0AEFD0023029323E0F42220
:1023C800129B5200636102A97CA800F0A3FD2100C2
:1023D800300023697CAA98478A9B060014934346D9
:1023E800019302AB00932200230029000120B84783
:1023F800002829D1F4227CA9520002A800F08AFD05
:102408000025082E1ED120001299FFF72BFF093551
:102418008146EEB20028D2D0109B10211493434677
:10242800019302AB00932200230001203143B847F7
:10243800002809D14846F7239B009D44C0BCB946F3
:10244800B046F0BD072E02D009239946F2E72800CE
:102458001299FFF783FF03A8FDF7A0FF24FCFFFFF5
:1024680070B5CB6BFAB00B6405000E004022043146
:1024780001A800F04FFD01235B42009306E06A4685
:1024880029002B6998470400082808D128001099CA
:10249800FFF7E8FE0028F2D009207AB070BD684640
:1024A800FFF728FF062CF7D131002800FFF758FF67
:1024B80010B58261DA6BC1601A6419000022FFF757
:1024C8006BFF10BD436970B50B64C36804000D0051
:1024D800002B13D10A00036901000220984707283E
:1024E80005D008280ED129002000FFF739FF002069
:1024F800296CFFF733FF281DFDF750FF0122FFF776
:102508004BFFFFDEFFDEC046C36810B5002B05D0C9
:10251800CB6B00220B64FFF73FFF10BDFFF7A0FF56
:10252800FBE7C04610B50400080004290ED80229AC
:1025380018D8002911D1002B12D10F2A10D89200D7
:10254800A2185368029A0020136008E0052907D1F1
:10255800636C029A0020136001E0012900D110BDCC
:102568000220FCE70120FAE700B585B003AB0A00BA
:10257800009300210023FFF7D5FF039805B000BDA5
:1025880010B50400080004290ED8022918D800291B
:1025980011D1002B12D10F2A10D8029B92001B6870
:1025A800A2180020536008E0052907D1029B0020EB
:1025B8001B68636401E0012900D110BD0220FCE71B
:1025C8000120FAE700B585B003AB039200930A0037
:1025D80000230021FFF7D4FF05B000BD70B5194CEA
:1025E800D36BA544136405000C0017A8111D4022E5
:1025F80000F090FC01235B42169313E00C2116A80F
:102608006A46FFF7DFFF210016A8A84700280FD168
:102618006946049B16AA083098470600052808D082
:10262800092805D068462699FFF71CFE0028E5D042
:10263800092616A8FFF75EFE300090239B009D44F4
:1026480070BDC046C0FDFFFFF0B54E464546DE46AC
:102658005746E0B50D000321EC6C160004CC8BB096
:10266800944601400894002B00D17FE0170C06AA7D
:102678005773624612040792FF223A409200A41848
:10268800022206AF3A73022900D1AC6B2A6DD20739
:102698000FD5300007A900F0CBFA002801D1082097
:1026A80000E009200BB0F0BCBB46B246A946A046E4
:1026B800F0BD22689346002AEBD00822024003921C
:1026C80000220492023201279046AA46B14602919E
:1026D8000193019B022B46D0238865889B460434CE
:1026E80053462E009B6C0F214846BE43F618FFF751
:1026F8003BFF0023864205D85B46BB439B199842A3
:102708009B415B4242466D0015405A463A4015438C
:10271800012D31D0022D4ED0002DC2D1029A002AAF
:1027280002D0002B00D0BDE0043423689B46002B68
:10273800CFD14E4607A9300000F07AFA0028B0D170
:10274800049B002BABD00F213000FFF70DFF0E21AB
:1027580002003000FFF736FF30000F21704AFFF704
:1027680031FF07209EE765680834B9E7120207922F
:1027780006AA5373032284E7029A002A4ED1002B3B
:1027880017D025686368ED0F9A1C00D189E7524677
:1027980058320692013300D1B0E0201DFFF7D8FD72
:1027A8002A00010006AB504600E000BF002800D018
:1027B8008DE00834B9E725686A0052089346029A02
:1027C800002A0FD1002B05D0039B002B43D05B467A
:1027D800002B40D0002D00DA04345B4601339B0007
:1027E800E418A2E753460D2148461E6AFFF7BCFECF
:1027F8008642EFD153469B6A9C42EBD153465A46D8
:102808009A6252460023D36204331363231D536331
:102818002368002B7CDB01230493DEE753460D215C
:1028280048461D6AFFF7A0FE8542C2D153469B6AFF
:102838009C42BED155464E462000FFF7B9FC0F21F9
:1028480002003000FFF7BEFE30002A000021FFF72B
:10285800B9FE072026E75823534405935B46251DF8
:10286800A34600261C000EE0059B28000693FFF7F0
:102878006FFD0022010006AB504600E000BF0136A4
:102888000435002835D1A642EED14E460D21300040
:10289800FFF76AFE55465C46069B286206206B6277
:1028A800AC62FFE62000FFF783FC554604340700BE
:1028B800AC6328004E4600E000BF002800D1F0E6D7
:1028C80030003A000F21FFF77DFE0720EAE64E466A
:1028D8008146069B0D21300055469A46FFF744FE77
:1028E8004B462862022B11D15346EB622B002C3346
:1028F800D4E723005C469B4625686BE74E460D21CE
:10290800300055469246FFF72FFE28625346C5E72A
:1029180058460130800055464E4620188DE7C0467F
:102928000000000010B50023FFF78EFE10BDC04662
:1029380010B50123FFF788FE10BDC04610B502236D
:10294800FFF782FE10BDC046F0B5CE46474680B5BB
:10295800050014001E00C3B0052900D9F7E0A64BF6
:1029680089005B589F46002A00D0F0E0836B1B6803
:102978004364002043B0C0BCB946B046F0BD002E49
:1029880000D0E4E0002301271604826B360C011DF9
:1029980038009840064201D001CA0860013304316A
:1029A800102BF5D1A404E4D4AA63E2E7032E00D0E7
:1029B800CDE01404160C240C3319102B00D9C6E0F2
:1029C800082203681A4200D0DDE020AF3800FDF786
:1029D80009FDF600AB6B002C0AD0F61AE400043EA1
:1029E8001C19BE191900096804339951A342F9D179
:1029F8003800AB63FDF7F4FCBBE7130C14049846EE
:102A0800240C012E59D0052E00D0A0E0A146C144C7
:102A18004B46202B00D99AE043460F2B00D998E06B
:102A28004B46102B00D8BCE0012203681A4207D09D
:102A380093430222134303605030FDF7CBFC2B680D
:102A480004221A4205D0280093432B60D830FDF7A2
:102A5800C5FC20AF3800FDF7BDFC6846FDF7BEFC9D
:102A680043461021C91A10235B424B449C464346F7
:102A78004900DC00A86B3C1901393CE0002E66D106
:102A8800102A64D8102203681A4275D120AF380082
:102A9800FDF7ACFC012639000023AA6B30009840F2
:102AA800044201D001CA086001330431042BF5D176
:102AB8003800AA63FDF798FC5BE71B19102B46D872
:102AC8004346102B43D00368334206D00322280024
:102AD80093432B605030FDF779FC20AF3800FDF7A9
:102AE80075FCA86B002C56D043466100DC0000231F
:102AF8009C463C1901390022013189008358A350B2
:102B080004328A42FAD163468018002B60D04446CA
:102B18006F465A00102C00D21024103CE4003C19D7
:102B2800013A002301329200C158E1500433934224
:102B3800FAD1C018012E2DD04346A8630F2B02D816
:102B480020A8FDF745FC3800FDF746FC11E70220F8
:102B580010E7002C00D10CE7042203681A423FD189
:102B68006F463800FDF73AFCA86B62004446103CFB
:102B7800E4003C19013AD4E793430360D930FF30AD
:102B8800FDF734FC82E7934303605930FF30FDF7CB
:102B980029FC1AE720AF0430A8633800FDF714FCBD
:102BA800E7E6012203681A4207D09343022228006D
:102BB80013432B605030FDF70DFC20AF3800FDF7B4
:102BC80009FCA86B002C8FD13800FDF701FCD0E67A
:102BD800012EE0D04346A8630F2B00D9C9E6F3E7DE
:102BE8006F4693430360D830FDF7F8FB3800FDF7D4
:102BF800F5FBA86BB9E7C046D02F0008027A03009E
:102C0800002A0BD1427A002A0FD0013A4272426858
:102C1800111D416003211268017202E0013A02723B
:102C28000268100E12021A607047B020FCE7C04616
:102C3800F0B50023454657464E46DE469846E0B571
:102C480005000E000F2785B03000FFF7D7FF0400FE
:102C5800B02800D1C3E0030628D50300BB43DBB28C
:102C6800802B54D0902B3DD0A02B6ED0B02B00D110
:102C780080E0C02B00D19AE0072203009343DBB227
:102C8800D02B0BD18023024001321B031A430121B0
:102C980005232800FFF758FE0028D5D0092005B0E5
:102CA800F0BCBB46B246A946A046F0BDFF23820051
:102CB80013400433994603AB00939A460D22002330
:102CC80000212800FFF72EFC039B64063AD44B44EE
:102CD80003935346009300230D2200212800FFF799
:102CE8004FFCB1E7833B03400D2BD7D00F2203AC39
:102CF80002400023002128000094FFF713FC002362
:102D08000D22002128000094FFF73AFC9CE70402FA
:102D18003000FFF773FF204380242402A042BDD077
:102D2800030100059946020C002300212800FFF743
:102D38000BFE0028B2D14B46234200D184E7012381
:102D4800984681E74A469B1AC2E7FF2109010A0013
:102D5800993B83431A410A40240702D58023DB01AB
:102D68001A43002300212800FFF7EEFD002800D1B8
:102D78006AE793E7B12837D0B22800D19AE0B328A0
:102D88003BD0B42868D0FC230340B42B00D185E79E
:102D9800072380220340013312031A430121012330
:102DA8002800FFF7D1FD002800D14DE776E7C628B7
:102DB8003ED0C7285AD0F8230340C02B68D0C82873
:102DC8006CD0C92800D069E73000FFF717FFF02260
:102DD8000303120313400F220240013256E7434611
:102DE800002B15D000205AE73000FFF707FF431EDD
:102DF800DBB202000E2BB4D950E73000FFF7FEFE1D
:102E0800F0220303120313400F2202400132C4E7E9
:102E180003AC0E22002128000094FFF783FB002357
:102E28000F22002128000094FFF7AAFB002036E7B4
:102E38003000FFF7E3FEF0220303120313400F22D2
:102E4800024001321A43032103232800FFF77CFDC7
:102E5800002800D1F8E621E70023002205212800F8
:102E6800FFF772FD002800D1EEE617E73000FFF704
:102E7800C5FE431EDBB202000E2B00D90EE700236D
:102E880004212800FFF760FD002800D1DCE605E7F3
:102E9800A022B13B034001331203D3E73000FFF710
:102EA800ADFE0F2302009A43D2B210320340120340
:102EB8000133EBE603AB0D22002100939A4628006C
:102EC8000023FFF72FFB3000FFF798FE039C030653
:102ED8001CD5022399467D339B465B4618404B46DA
:102EE800984007239C46241830000394E144FFF7D8
:102EF80085FE0306F1D44B46984081239B009C46EF
:102F080053466444001903900093E4E6022399466B
:102F1800F1E7C046002310B59A4200D110BDCC5C41
:102F2800C4540133F8E70000F8B5C046F8BC08BC43
:102F38009E467047F8B5C046F8BC08BC9E46704728
:102F4800010002000400060008000A000C0010003E
:102F5800200040008000000108040204080101016B
:102F6800010101030701000000000000000000004B
:102F78000000000000000000010000000200000046
:102F88000300000004000000000000000000000032
:102F98000000000000000000000000000000000029
:102FA8000000000000000000010000000200000016
:102FB80003000000040000000600000007000000F5
:102FC800080000000900000086290008022A0008FD
:102FD800562B0008B4290008842A00086E29000826
:102FE80030800181B0AB08B1000000003080018161
:102FF800B0AB08B10000000076B20181B0AB308000
:1030080000000000800A0181B0B0ABF000000000B1
:103018003F020181B0AB30800000000080040181D4
:08302800B0B0ABF000000000A5
:103030006CEDFF7FB0A90880D0EDFF7F0084028097
:10304000F8EDFF7FA4FFFF7F46EEFF7FA8FFFF7F25
:1030500094EEFF7FAB08B180C0EEFF7FB0B0AA80D6
:10306000F0EEFF7F01000000ECEEFF7FB0B0A88023
:1030700050EFFF7F00841280A8EFFF7FB0AA01808D
:103080008CF0FF7F01000000E4F1FF7FB0A9028017
:103090006CF2FF7FB0B0A880C0F2FF7F010000009B
:1030A000C8F2FF7FB0B0AA80F8F2FF7F54FFFF7F25
:1030B000B8F3FF7FAA3F398000F4FF7FB0B0A8804B
:1030C0000CF4FF7FB0B0AA8048F4FF7FB0B0A880B6
:1030D0005CF4FF7F010000000CF5FF7FAA0FB280B7
:1030E00070F5FF7F28FFFF7F44F8FF7FB0B0A88016
:1030F00060F8FF7F24FFFF7F0CFBFF7F01000000D3
:1031000038FBFF7F20FFFF7F14FEFF7F01000000E0
:043110005D05000851
:043114003105000879
:0C31180001000000040000000024F4008E
:040000050800210DC1
:00000001FF
